:0300000002000EED
:10000B000200297581BD75890975B802758ABF759E
:10001B008CBF7830793175A88275881080FE758811
:10002B0000758ABF758CBFE7C3940060040702009C
:10003B00A77700E6C3940760040602004A7600C364
:10004B00E69400602AC3E69401602AC3E69402603A
:10005B002AC3E69403602AC3E69404602AC3E69499
:10006B0005602AC3E69406602AC3E69407602A75E6
:10007B00900F0200A77590870200A77590C302002E
:10008B00A77590E10200A77590F00200A775907814
:10009B000200A775903C0200A775901E7400C2D099
:1000AB00C2D1C2D2C2D3C2D4C2D5C2D6C2D775882E
:0200BB00103201
:00000001FF
