:0300000002000EED
:10000B000200317581BF75890175B802758ABF759C
:10001B008CBFD2D37830793176007700C2D375A8F4
:10002B008275881080FE758800C0E0C0D0D2D37571
:10003B008ABF758CBFE7C394006004070200B577D5
:10004B0000E6C394076004060200587600C3E694EA
:10005B0000602AC3E69401602AC3E69402602AC3B7
:10006B00E69403602AC3E69404602AC3E694056011
:10007B002AC3E69406602AC3E69407602A75900F9C
:10008B000200B57590870200B57590C30200B57577
:10009B0090E10200B57590F00200B5759078020002
:1000AB00B575903C0200B575901EC2D3D0D0D0E090
:0400BB007588103202
:00000001FF
